:1000000070250020352200003978000021220000F0
:1000100021220000212200002122000021220000D4
:100020000000000000000000000000009923000014
:1000300021220000000000003123000021220000E6
:100040003125000031250000312500003125000058
:100050003125000031250000312500003125000048
:100060003125000031250000312500003125000038
:100070003125000031250000312500003125000028
:1004700031250000312500003125000053B94AB96B
:10048000002908BF00281CBF4FF0FF314FF0FF309C
:1004900000F00CB8ADF1080C6DE904CE00F010F8D6
:1004A000DDF804E0DDE9022304B07047704700BFC7
:1004B000034613F8012B002AFBD1181A01387047A4
:1004C0002DE9F04786468C460846089E1546744638
:1004D0001946002B40F0C1808542B2FA82F245D91C
:1004E0004AB1C2F1200300FA02FC954094402EFA72
:1004F00003F343EA0C0C4FEA154EA8B2230CBCFBE5
:10050000FEF80EFB18CC08FB00F943EA0C439945B2
:1005100028D9EB1808F1FF3704D2994502D9A8F180
:1005200002072B44A3EB0903A4B2B3FBFEFC0EFBB2
:100530001C330CFB00F044EA0344A04214D92C19EC
:100540000CF1FF3304D2A04202D9ACF102032C44D7
:10055000241A43EA07401EB1D4400023346073607C
:10056000BDE8F0874746DDE76346F1E792BB431BF2
:1005700001214FEA154EAFB2200CB3FBFEFC0EFB7F
:100580001C330CFB07F840EA0343984561D9EB188C
:100590000CF1FF3004D2984502D9ACF102002B4493
:1005A000A3EB0803A4B2B3FBFEFC0EFB1C330CFB55
:1005B00007F744EA0344A7424DD92C190CF1FF3345
:1005C00004D2A74202D9ACF102032C44E41B43EA53
:1005D0000040C0E7C2F120039540944020FA03F1A7
:1005E0002EFA03F34FEA154E9040AFB20343B1FB2E
:1005F000FEFC0EFB1C10190C0CFB07F841EA004135
:10060000884522D969180CF1FF3004D2884502D9F7
:10061000ACF102002944A1EB08019BB2B1FBFEFC46
:100620000EFB1C110CFB07F743EA01439F420ED956
:10063000EB180CF1FF3104D29F4202D9ACF1020158
:100640002B44DB1B41EA004193E76046E3E7614648
:10065000F7E76046A4E76346B8E7834206D916B9D0
:10066000002108467CE7C6E900E0F9E7B3FA83F722
:100670008FB9834201D3724508D8BEEB020460EB08
:10068000030301209C461EB9002169E73846FAE7BA
:10069000C6E9004CF8E7C7F1200CBB400EFA07F59D
:1006A00022FA0CF42EFA0CF1BA401C4320FA0CF397
:1006B000B8404FEA144901431FFA84FEB3FBF9F82E
:1006C00009FB18300B0C08FB0EFA43EA00439A456D
:1006D00040D9E31808F1FF3004D29A4502D9A8F1B5
:1006E00002002344A3EB0A0389B2B3FBF9F809FB28
:1006F000183308FB0EFE41EA03418E452CD96118E0
:1007000008F1FF3304D28E4502D9A8F10203214437
:1007100043EA0040A1EB0E01A0FB02984145CE4602
:10072000434602D306D14D4504D20138B9EB020E3F
:1007300068EB0403002EA7D0B5EB0E0261EB0301BA
:1007400001FA0CFC22FA07F3F9404CEA0303C6E96C
:10075000003199E74046C5E74346D9E7F8B500AF11
:100760000321234A234806F0A2FF6C4688B06A465C
:10077000214B5361214B93614FF400739383204BC2
:1007800042F8103F00234FF4E6511A4800F0C0FF32
:10079000A5461C4C204607F0BFFA38B901211A4A79
:1007A000144806F084FF0020BD46F8BD2269A16808
:1007B0001368204623F4007313600B684FF4202263
:1007C000092198470028EEDB104E0A4DA3684FF42C
:1007D000007120465B69984703460321324628464C
:1007E00006F06EFF002147F6122004F055FDEDE7FC
:1007F00044A50000AC8F00005BA500006CA50000C4
:10080000030000018886000079A500008EA5000085
:100810002DE9F04F91B0009302F004030293C2F36C
:10082000C2030133840705460E46DDF86880039253
:10083000059340F0BB81041D30B1072909D86FF042
:100840001B0011B0BDE8F08F01F007063444C6F17B
:100850000806009B4FF000094FF0040A591E4FF0A4
:10086000FF334F460193CB465346CDF810900DB160
:10087000009A22600598002800F3E8809848009AC2
:10088000824203D397488242C0F0E080039AA4EBEF
:10089000050E92074FEA9E0000F103810F2F00F230
:1008A000B180002D00F0058107F140020DEB020C34
:1008B000019A0CF8200C0CF8102C049801300490CC
:1008C000E7E07A285DD84B280ED8472859D8292840
:1008D0002DD8252852D054D820287AD02338D0F1CA
:1008E000000B4BEB000B74E04C382E2849D8DFE8A6
:1008F00000F07048484848484848484848484B48ED
:100900004848484848484859484B4B595959704BF2
:100910006D487048184B184848827F4B48484B48F0
:100920007F0000204FF0000B4FF0040A38E0012256
:100930002A38C0B202FA00F010EA0E0F49D110F0C6
:10094000625C2FD110EA020B43D06046013C544454
:10095000B4FBFAF40AFB04F4002D61D0A3EB050C00
:10096000A444B4453FF66BAF002868D1042B47D1AF
:1009700058F8043B2360042304342AE0019A013A26
:1009800001924FF0000B24E011F8010C6C2834D1D7
:10099000002011F8023C83466C2BC5D14FF0080AA9
:1009A0005346D3E708F1070828F00708073424F076
:1009B0000704F8E802AB35B106982044B0423FF690
:1009C0003EAFC4E900AB4FF0000B08344FF0080A0B
:1009D000534611F8010F002878D0BBF1000F7FF4C7
:1009E00070AF2528F5D14FF0010B019B0133019326
:1009F0004FF0040AECE7584694E700208346A5E749
:100A0000082B02D06FF015001BE708F1070828F04B
:100A10000708F8E80223C4E9002308230834D8E7CC
:100A200068B9042B02D108F10408A4E7082BE9D126
:100A300008F1070828F0070808F10808EDE7059A0B
:100A4000013A059258F8042B009210E7039A900798
:100A500020D54FF0010CA4EB050E4FEA9E00BEF529
:100A6000007FCFD20F2FCDD8F5B107F140020DEBAB
:100A7000020E019AC0B20EF8200C0EF8102CBCF138
:100A8000000F3FF41AAF60F07F000EF8200C09F160
:100A900001090137C5F108024FF6DA7E04340692E7
:100AA00097E74FF0000CDAE7BCF1000F01D00136F8
:100AB000EFE7029802360028EBD10098CDE9063125
:100AC000FFF7F6FCDDE906310644E2E7631BB3F508
:100AD000806F97D245B9A6F10804E018B1E600BFCF
:100AE000D085000034AE0000029A9B0828602B706D
:100AF0009DF81030C2B1EB7085F80290B9F1000F8B
:100B000005D0002208A8C5F1010C97420ED14FF084
:100B1000000AC5F101030DF1200801930DF1300B1E
:100B2000574512D1601B8CE66B70E5E710F8013B6E
:100B3000190608D50CEB040EB64503F07F033FF60B
:100B40007EAE04F8013B0132DFE7B9F1000F03D0BC
:100B500098F90020002A17DB029BD3B11AF80B206A
:100B600004F8012B0022019B18191044B0423FF6F3
:100B700066AE98F80000009904F8010B2046039235
:100B800007F09DFC039A14440AF1010A08F10108D8
:100B9000C6E798F8002055F822300093029B009891
:100BA00045F82230FFF784FC421CDCE76FF00D00B3
:100BB00047E600BF2DE9F04F97B000AFD7F880B0FF
:100BC0003B62CBF3C0030446894690F802A0FA6268
:100BD000BB6141B9457800780AEB800020444D455F
:100BE00017D8A0EB0409E378FB61BAF1000F02D03B
:100BF0001BF0010F16D1FB6953BBFB6A1BB14946C1
:100C000020463A6A98474D4628465C37BD46BDE8BF
:100C1000F08F461C3046FFF74BFC0130304409F1A1
:100C20000109DCE7626823787A62FA6A99007961DF
:100C300004EB8301002A40F001810E464FF00008CA
:100C40004D4601EB0A094E454CD101EB0A0610E076
:100C50001BF0020FD1D023789A007A61626804EB0E
:100C600083017A62FA6A002A77D14D46904601EBF9
:100C70000A061BF0050F0CBF02230123FB62FB6970
:100C800006EB430A0BF00203BB625645BCD016F8D4
:100C9000021B16F8013C54F82390994B994502D356
:100CA000984B994536D3BB69002B40D0786A06F043
:100CB000E7F800283BD0E9468AB06A46924B536178
:100CC0007B6AC2E906314FF4007313848F4B42F8FC
:100CD000103F00234FF412518D4800F019FD023DE2
:100CE000CD46D2E716F8013BF96254F82300FFF72E
:100CF000DFFBD7F88430F96A01304BB1D7F8883080
:100D000098453EBFD7F8843023F8180008F1010851
:100D1000054498E7BB6923B1786A06F0B1F800286A
:100D2000C9D11BF0010F05D1FB6AED1AADE7BB6A13
:100D3000002BAAD04846FFF7BBFBD7F8843053B14D
:100D4000D7F8883098453FBFD7F88420431C22F855
:100D5000183008F10108054497E7BAF1000F73D085
:100D60001BF0040673D0D046002607F14800524617
:100D70003B61B96207F0A3FBB96A3B6901EB0A0268
:100D8000BA62FA69F9695200FA60BA6A02EB410282
:100D90003A610BF00202BA603A69B96A8A4258D1E4
:100DA00062781BF0020F18BF00217A6208BF4FEA79
:100DB0005801B2181BF0010FD2B240F09F801BF017
:100DC000040F14BF40460020BB616270A070E17048
:100DD00020463A6A7969FB6A9847051EFFF614AF08
:100DE000BB69414623707B6A3A6A6370FB6984F889
:100DF00002A0E37007F14800FB6A9847B0F10008D1
:100E0000C0F2BA807B69A9EB0A01C91AFB683A6A89
:100E1000C91AD7E90A0398470028C0F2AF804FF0FB
:100E2000000BA84408EB000507F1380AB34571D35D
:100E300000213A6A0846FB6A9847E5E656464FF0B5
:100E4000000807F1380092E75646D04696E7B046CC
:100E500094E7BA6A12F8021B12F8015CBA6254F8FD
:100E60002500274A904202D3264A90421ED3BA69EF
:100E700032B1786A7B6006F003F87B6800288BD17A
:100E8000BA6802BB08F1280207F1300C08F1010032
:100E9000944407F1580208F1020852FA80F00CF865
:100EA000101C5FFA88F800F8105C75E7BA693AB16F
:100EB000786A7B6005F0E4FF7B6800287FF46CAF04
:100EC0001BF0010F09D006F1280207F13000711C58
:100ED000161806F8205CCEB25EE71BF0040F3FF454
:100EE0005BAF08F1280207F1300008F1010102EBC5
:100EF000000808F8105C5FFA81F84DE7002063E70E
:100F0000D085000034AE0000B5A50000040000014B
:100F1000948F00001BF80A3054F8239087F837307C
:100F2000D7F884302BB3D7F888309B4521D2D7F837
:100F3000843033F81B8001213A6AFB6A07F13700DD
:100F4000984700281ADB0544B8F1000F06D148463F
:100F5000FFF7AEFA00F101081FFA88F8414648464B
:100F60003A6AFB6A9847002808DB05440BF1010B3D
:100F70005CE74FF00008DEE7454645E6054643E6F8
:100F8000014B1860704700BFD000002080B50546B7
:100F90000E461746984604F0D1F9034607F00EFBBB
:100FA0000446DFF81890424649F80030394630468A
:100FB000A84754F8090001F0A5F900BF0800000097
:100FC0002DE9F047058B04462807904611D40229E5
:100FD00005F0070540F0CC80204606F0F1F978B125
:100FE0000138218B042811D8DFE800F0C2106D858C
:100FF000950001290CBF45F0100545F0200525831B
:1010000088F31188BFF36F8FBDE8F08701F0070AFE
:10101000AA4500F0A5800027B9463E46A368002BEC
:1010200000F0BC8041F00801218388F31188BFF3F0
:101030006F8FA168002900F0BA800D68002900F0C8
:10104000B680334652462046D1F80480C047002D72
:1010500076D02B6829461D46F0E701F007035A1F9A
:10106000012A1BD8002221F00701062B276889B22C
:10107000C4E9002209D13B4603E0628B013262835E
:101080001B68002BF9D141F002012046218306F0B4
:1010900097F900287AD041F0200176E0042B0AD19C
:1010A00021F0070189B22046218306F089F910B1A9
:1010B00041F020012183218B01F0070AAA454FD07E
:1010C0000027B946AAE7236921F0070141F006018C
:1010D000062DD3F8009021832DD1B9F1000F3FD018
:1010E00041F00801218388F31188BFF36F8F2046F8
:1010F0003949C84729E021F00701236941F004017B
:1011000089B2042DD3F804902183E6D000274FF054
:10111000040A3E4682E721F00701236941F00501F8
:1011200089B2052DD3F808902183D6D000274FF03F
:10113000050A3E4672E700274FF0060A3E466DE775
:101140002B4687E7B9F1000FD1D1EFF311882023A7
:1011500083F31288BFF36F8F238B23F0080323835D
:10116000258BEA062ED525F01003238305F007050D
:101170006669218B002EBFF670AF00232768C4E993
:10118000003321F0070141F001012183218B4FF051
:10119000000901F0070AAA457FF440AF002F9CD058
:1011A00041F00801218388F31188BFF36F8F002F6E
:1011B000C8D03D68394633465246204606F02CF9E1
:1011C0002F46F4E7AB067FF51BAF25F02003238302
:1011D00005F0070500E700BF457400002DE9F04762
:1011E000044607464FF00109DFF8508014B938462D
:1011F000BDE8F08794FAA4F5B5FA85F509FA05F388
:101200002E0108EB05156FEA030A24EA03042B7B81
:10121000002BEBD058F806301B694BB94644736875
:1012200004222846196807EA0A0706F0D1F9DDE723
:10123000284698470028D9D1F0E700BFEC8F00007E
:1012400030B5002289B00F490F4806F0BBFE0022DE
:1012500000230024CDE906230E230C4DCDE90334F1
:101260004FF440722846CDE90144094B09490094E6
:1012700003F074FD0849284606F0A1FD204609B098
:1012800030BD00BF9D120000A80600201002002003
:10129000B51500003011002069A60000014803F0D8
:1012A000C3BC00BFE80100202DE9F047804621487B
:1012B0000F4606F071F90646002833D0002528466F
:1012C000BDE8F087237B83B12368DB680BB1204640
:1012D0009847636883F8069023681B69D3B96368ED
:1012E00004222046196806F073F90136103454457B
:1012F000E8D3B8F1000FE2D0002DDFD02846FFF789
:101300006DFF0546002FF7D0002140F2391003F0A1
:10131000C3FFF1E7204698470028E0D009FA06F31A
:101320001D43E2E705464FF00109034CDFF80CA02E
:10133000DDE700BF10090020EC8F0000FC8F0000EB
:10134000014B53F8200070474C90000008B503464D
:1013500008462BB1044A136000F070FC002008BD61
:101360006FF01500FBE700BFD400002010B5044C5F
:10137000237813B9034803F057FC0123237010BDF1
:1013800024110020E801002010B50446094806F0A9
:1013900003F93CB1084BD3E8EF1F0139C3E8E21F62
:1013A000002AF8D1054806F019FEBDE810400448AF
:1013B00003F03ABC080900200C090020A806002010
:1013C000E801002000200146034BD3E8EF0FC3E8FB
:1013D000E21F002AF9D170470809002070B5FFF715
:1013E000F1FF0546074C084EB44200D370BD636858
:1013F0005B792BB123685B6813B129462046984777
:101400001034F1E7EC8F0000FC8F000010B5044CA5
:101410000449204605F06DFE034B1C6010BD00BF63
:1014200048010020389000000009002000230D4AE8
:1014300010B513700C4A0D4913600D4A0D48136026
:10144000FFF784FFFFF7E2FF0B4B0C4918468B4276
:1014500000D310BD1A1A5C681211013222711033C8
:10146000F5E700BF251100200809002040420F00C9
:101470000C09002095750000EC8F0000FC8F000027
:10148000014600220023014805F054BE4801002017
:10149000014805F0EDBE00BF48010020024B0146A7
:1014A000186805F039BF00BF00090020014805F0A9
:1014B0006EBF00BF4801002070B5274B1878002888
:1014C00049D0FFF7E5FF0546002841D1234B244CC6
:1014D0001B68002B19DD06F073FD4FF47A75A0FB35
:1014E000050647F61222002305FB0161FEF7C6FF41
:1014F000D4E90032C01A40F2E93361EB02019842AC
:1015000071F1000101D3FFF769FFD4E9003213F54F
:101510007A7342F10002C4E90032BDE87040FFF77F
:10152000C5BF63685B7923B12368294620461B68E1
:1015300098471034B442F4D32846FFF7AFFF094B65
:10154000D3E8EF1F0139C3E8E21F002ABED0F7E756
:10155000054C064EEEE770BD24110020080900205E
:10156000A00600200C090020EC8F0000FC8F00007A
:1015700070B50D4D297861B90120FFF795FE0B4C30
:101580000B4EB44206D3FFF797FF0028FBD101238F
:101590002B7070BD63685B791BB1236820469B6824
:1015A00098471034EDE700BF25110020EC8F0000B4
:1015B000FC8F000000212DE9F0470846FFF774FE7C
:1015C000044658B340F21B684FF0000906F0F6FFDE
:1015D0001B4B1C4A1B58136033B11B4B1B68092B58
:1015E00002DD1A4803F020FB0025194FDFF85CA04C
:1015F00044B12046FFF7F2FD044618B94FF0FF381A
:101600004FF0FF39FFF758FF064628B9B5B94246F3
:101610004B46504603F03CFB3546E9E74FF0FF38B8
:101620004FF0FF39D2E72B689B691BB10022284697
:10163000114698471035BD42F5D3E8E7054DFAE766
:1016400008000000040900200C090020E801002027
:10165000FC8F0000EC8F000013B5184805F09CFFCC
:10166000174B1B7873B1EFF31184202383F3128897
:10167000BFF36F8FFFF720FF84F31188BFF36F8FE5
:1016800002B010BD0F4B1B68002BF9D050B90022DF
:1016900000230D48CDE9002347F61222002304F071
:1016A00037F9EDE70928EBD1074806F097FC074822
:1016B00002B0BDE8104003F0B7BA00BF0C0900202B
:1016C0002511002004090020A8060020E8010020C0
:1016D00010B5064B04461B6898472146A060044895
:1016E00005F0A7FDBDE81040FFF7B6BFD40000200D
:1016F00048010020044A054B9B1AB1EBD30F34BFBD
:1017000052F83100002070478C8F0000EC8F0000F1
:101710002DE9F04F8FB0C1F34A2804AF0D46914632
:10172000B8607B600C0DB8F1000F63D000264FF05D
:10173000040B4FF00A0A07F11403C7F80C80C7E93D
:1017400007667E620193CDF808B0CDF800A007F1DE
:101750001C0332464846F968FFF72CFAB0F5006FD3
:1017600003461CD36C468AB0D9F8041004AB264853
:101770001A46C3E9050140F2FF71D9614FF40071C7
:101780001984224B42F8103F4FF41251334620483F
:10179000FFF7BEFFA5462C37BD46BDE8F08FC0F36E
:1017A0000A0804F11700184420F0070080083B6085
:1017B000FFF766FE68F35325044690B13B6800F1DD
:1017C0001001C7E9083607F11403F961CDE900A358
:1017D000CDF808B048460F4AF96807F11C03FFF737
:1017E000E9F968F353252A4620467B68B96805F075
:1017F0000EFFD0E704F1170020F007008008FFF784
:101800003FFE0446EDE700BF7EA600000400000195
:10181000B48F0000E37500002DE9F04F87B0044657
:10182000DDE9105ADDE91279934698460391BFB17C
:101830003B46524610210020CDF80090CDF8149080
:10184000FEF7E6FFB0F5006F06460AD340F2FF73DD
:101850000221174A174807B0BDE8F04F05F030BF26
:101860003E4605F11700304420F007008008FFF7DE
:1018700007FE04F007040BF0070BE40044EA8B14A6
:1018800044EA462444EA0554054640B13FB13B468C
:1018900052463146CDF800901030FEF7B9FF43466E
:1018A00022462846039907B0BDE8F04F05F0AFBEC9
:1018B000BDA60000B48F0000406820B1034BC01AE1
:1018C00040F3CF0070474FF0FF3070478C8F00001F
:1018D0000EB403B503AB53F8042B0146044801933F
:1018E00001F046F802B05DF804EB03B0704700BFAA
:1018F0000B770000CA0605D48B064CBF024903498A
:10190000FFF7E6BF704700BFF6A60000F5A600008F
:101910002DE9F04F89B09B46149B9DF84CA006938F
:10192000159B04460593169B0D469046179E0493FF
:10193000BAF1000F00F09D8006F48073079305F064
:1019400045FE06F00209024600283ED02046914995
:10195000FFF7BEFF0746B9F1000F08D016F0440F9D
:1019600035D12A4620468C49FFF7B2FF074406F0DE
:10197000010353B1894B204653F82A20884B8949EB
:10198000002A08BF1A46FFF7A3FF06F48073002B56
:1019900049D006F00803002B63D1B8F1000F66D0E0
:1019A000424620468049FFF793FF0546069B3D448B
:1019B000002B6DD1049B002B73D1F30700F1E48061
:1019C00031462046FFF796FFD8E00746C3E7774B3E
:1019D00018680028CAD0764B4FF47A791B684FF00C
:1019E0003C0CB5FBF3F5B5FBF0F14FF4616300FB84
:1019F000115509FB05F5B1FBF3F2B5FBF0FE03FB56
:101A0000121100FB1E55B1FBFCF309FB05F5B5FBFC
:101A1000F0F50CFB131120460091CDE901E5654975
:101A2000FFF756FFA2E706F00803EBB1624B204632
:101A300053F82A206149FFF74BFF0546B8F1000F24
:101A400005D0424620465849FFF742FF0544BBF106
:101A5000000FABD05A4620465949FFF739FF0544DD
:101A6000A4E74FF0000BE1E706F00805E6E745467E
:101A70009CE7BBF1010F069B06D1002B64D1049BB0
:101A8000002B7BD000250CE0002BF8D04D485CE00B
:101A90004D48069B22464D4905F0C1F9049B002B99
:101AA00068D0DFF82C81DFF82C91049F3146102F8D
:101AB000204628BF10274FF0000BFFF71BFF5D45A6
:101AC00045DC059B494620461A78FFF701FF4FF099
:101AD000010B1BF0070F03D141462046FFF7F8FE2C
:101AE0005F453BD9059B4946204613F80B20FFF77D
:101AF000EFFE0BF1010BBBF1100FEAD14FF0000B21
:101B000020463549FFF7E4FE5A46059B20469A5C7D
:101B1000A2F120015F2928BF2E223049FFF7D8FE0D
:101B20000BF1010BBBF1100F1DD01BF0070F03D100
:101B300041462046FFF7CCFE5F455A46E5D8414670
:101B40002046FFF7C5FEEBE71F485546A1E7414693
:101B50002046FFF7BDFE0BF1010BB0E72046204900
:101B6000FFF7B6FEC5E7059B3B440593049BDB1BD3
:101B700004939AD1BAF1000F7FF41FAF204609B049
:101B8000BDE8F04F05F0B4BD2046054A0549FFF712
:101B90009FFE15E7FDA6000001A700005C90000075
:101BA000F8A6000069A5000026A70000180900207B
:101BB000140900200AA70000709000002AA7000066
:101BC00030A70000397700000B7700007129000072
:101BD0003DA7000035A700003FA7000041A7000077
:101BE0003BA7000042F20F7373B58B4228BF0B4630
:101BF00005680446052168460D4A04F0A9FD06461D
:101C0000636828460B225B680A4905F063FD636838
:101C10003246694628465B6805F05CFD63681B2216
:101C200028465B68044905F055FD02B070BD00BF51
:101C3000A6A5000060A7000044A700000021012322
:101C4000064A904206D8064A01B901231360054BA3
:101C500018607047012140085B00F2E740420F0026
:101C60001409002018090020F8B50D460446064F57
:101C70004618B44201D12846F8BD14F8011BBB68D0
:101C800001485B689847F4E7A8860000014B0360B1
:101C900000207047B890000008B5044805F017F917
:101CA000BDE80840024805F012B900BFA6A7000031
:101CB000DBA700002DE9F04706460C4600AF0029DF
:101CC00036D0D1E90012E9468AB06D46A3684FF0DC
:101CD000050AA8461F48C5E90723C5E9050148F8D4
:101CE00010AF002342464FF421511B48FFF710FD6F
:101CF000D4E90312CD466369AD461848C5E9072308
:101D0000C5E90501C5F810A0002342464FF4215152
:101D10001148FFF7FDFCCD46E3690121104A0E484A
:101D200005F0CEFCA36901210E4A0B4805F0C8FC62
:101D3000012E07D1EFF305830B4A31460648103BCD
:101D400005F0BEFC2146304602F010FDBD46BDE860
:101D5000F08700BF09A80000D48F000038A8000059
:101D600067A8000076A80000A4A8000030BFFFF715
:101D7000FDBF00BF2DE9F04105460B4EDFF82C807A
:101D8000324606EB0807CC1B2046094906F097FBB4
:101D9000A01942460021083C06F09EFBC5F8804091
:101DA00007F10800BDE8F081000000000400000019
:101DB000FC8F0000054B5A699B689A421FBF044A7A
:101DC000536843F080535360704700BFF80A002007
:101DD00000ED00E070B52A4C06460D4629482A4918
:101DE00005F031FDA36ADB0647D52648274905F0F3
:101DF0002AFD1120A36A1C0704D52248244905F0B6
:101E000022FD12201E4CA36A990712D521491D48B4
:101E100005F019FD636BA26A120609D501211E4A5D
:101E2000184805F04DFC1EB1A36A23F08003A3629D
:101E30001320134CA36ADE0704D51248174905F096
:101E400002FD1420A36A9C0604D50E48144905F02F
:101E5000FAFC15200A4B9A6AD10658BF9A6A9A6A08
:101E6000920642BF5A6A22F400525A629A6A42F0BB
:101E7000FF029A6200232B7070BD1020BAE700BFEA
:101E800000ED00E0D48F0000B7A80000CDA800004E
:101E900000A9000013A900002BA9000041A900001F
:101EA00060A9000010B5244C2449254805F0CBFC5E
:101EB000A36A99013ED52248224905F0C4FC1E20A0
:101EC000A36ADA0104D51E481F4905F0BCFC1F2097
:101ED000194CA36ADB0204D519481C4905F0B3FC70
:101EE0000220A36A1C0304D51548194905F0ABFC70
:101EF0002120114CA36A590304D51148154905F056
:101F0000A2FC2220A36A9A0304D50D48124905F0C9
:101F10009AFC2320084CA36ADB0304D508480F4928
:101F200005F091FC2420A36A6FEA03436FEA134390
:101F3000A36210BD1D20C3E700ED00E08FA90000E3
:101F4000D48F0000A7A90000BAA90000D4A90000FE
:101F5000FEA900001CAA000041AA00005BAA000024
:101F600070B5294C06460D462848294905F06BFCFA
:101F7000A36AD9043CD52548264905F064FC1720FE
:101F8000A36A1A0504D52148234905F05CFC1820F2
:101F90001D4CA36A9B0512D51C48204905F053FC33
:101FA000A36BA26A100409D501211D4A174805F048
:101FB00087FB1EB1A36A23F40043A3621920124CCD
:101FC000A36A590504D51148164905F03CFC1A20AE
:101FD000A36ADA050ED50D48134905F034FC1B2021
:101FE000094A936A43F47F43936200232B7070BDC8
:101FF0001620C5E7A36A9B04F2D504480B4905F0F7
:1020000022FC1C20ECE700BF00ED00E0D48F0000B4
:1020100086AA00009CAA000000A90000ADAA00004A
:10202000C6AA0000DBAA0000F6AA000060A9000012
:102030002DE9F0418AB0654B0446D3F804800026B0
:1020400000AFC8F3080586F31188BFF36F8F02F065
:102050007F43B3F17F4F07D102F00C03082B12D15D
:102060005B495C4805F0EFFB002634460023FB711A
:10207000EB1E092B00F28980DFE803F00A7F827BE8
:1020800087878787878510074CBF0C460126EDE7B9
:102090005149504805F0D7FB00234C4DFB71EB6ACA
:1020A0009A0705D54D494B4805F0CDFB002331E09B
:1020B000EB6A002B01DA4A49F5E7EB6A5B00F5D5DC
:1020C0004849444805F0BFFB6B69A26943F480733B
:1020D0006B61BFF34F8FBFF36F8F6B6932F8022CC8
:1020E00023F480736B61BFF34F8FBFF36F8F4DF697
:1020F00002739A4207D0AB6ADBB26BB30120F91DC1
:10210000FFF768FE37E023680121374A314805F0C0
:10211000D7FA2368FA79DAB907F1080504F1200C37
:102120002A4620686168083403C264451546F7D121
:102130007A6A002E45D0C2F3080121B96FEA522213
:102140006FEA42227A62184607F10801FFF7B2FDF2
:102150002837BD46BDE8F081AB6A13F47F4F04D049
:102160000120F91DFFF7FCFE05E0AB6AB3F5803FE7
:102170009CD3FFF797FE0346CCE70020F91DBFE78D
:102180000020F91DEEE719498DE7194A18F4F87F88
:10219000E8468AB0174B18BF13466A461649103DE9
:1021A000C2E905134FF400731384144BD56142F850
:1021B000103F00234FF411510648FFF7A9FAC54616
:1021C00074E722F4FF7222F00102BBE700ED00E0A9
:1021D0003CAB0000D48F000067AB00007EAB00007A
:1021E0009FAB0000ADAB0000CCAB0000E8AB000043
:1021F00023AB00000EAB00000CAC0000040000019B
:10220000064B5A6942F010025A615A6942F48062E0
:102210005A615A6922F008025A61704700ED00E0E5
:10222000EFF30880EFF3098101B57246FFF700FF75
:1022300001BD00BF002080F31488BFF36F8F002022
:1022400080F30A8880F30B880F4880F3088801F038
:10225000E1F900200D490860BFF34F8F00F02CF822
:10226000202080F311880A484FF40061401880F361
:102270000988EFF314800221084380F31488BFF328
:102280006F8F00F0EFF800007025002094ED00E063
:1022900030140020002318460649D1F89020C2F3DC
:1022A0000722934200DB7047C1F89830C1F8A000C4
:1022B0000133F6E700ED00E010B572B6002484F3B8
:1022C0001388FFF7E7FF23464FF0FF300C4A03F176
:1022D00020010133102B42F82100F8D100234FF0E8
:1022E000FF30074A03F160010133102B42F821004F
:1022F000F8D162B6BFF34F8FBFF36F8F10BD00BF31
:1023000000E100E0084B9B6883420BD1EFF30583AB
:1023100043B1064B5A6842F080525A605A6A22F41E
:1023200000425A6203F010B8F80A002000ED00E005
:1023300016498A684FF030001044EFF3098C80E8AA
:10234000F01F202080F31288BFF36F8F104F4FF0E3
:1023500000664A698A603E60D2F880000D4C2060B9
:10236000D2F884000023C2F8843080F3118802F18F
:10237000300090E8F01F8CF3098802F1000004B5EA
:1023800005F069FABDE8044070470000F80A002033
:1023900004ED00E0400900201EF0040F0CBFEFF335
:1023A0000880EFF30980816911F8021C0229FFD02F
:1023B00001B5724605F03CFA01BD00BF00B200282D
:1023C00007DB01234109034A00F01F00834042F864
:1023D0002130704700E100E000B200280CDB012250
:1023E0000649430900F01F008240203341F82320B2
:1023F000BFF34F8FBFF36F8F704700BF00E100E066
:10240000054B420953F82220012300F01F0003FA74
:1024100000F01040704700BF00E100E000B200286B
:1024200001F10101ACBF00F16040064B4FEA4111E0
:10243000C9B2ABBF00F5614000F00F0080F8001397
:102440001954704714ED00E0044B054A23F07F0354
:102450009360BFF34F8FBFF36F8F70470000000092
:1024600000ED00E008B5FFF7EFFF074AD2F888302B
:1024700023F47003C2F8883002F064FA03F086F89F
:1024800000F046F802F09EFA00ED00E042F8203C31
:10249000009B0B4942F81C3C019B21F0010142F8D2
:1024A000183C029B42F8081C42F8143C4FF0807321
:1024B00042F8043C0023203A0265C0F8843070479B
:1024C0008D0F000000B50B4B15469860D0F88020AA
:1024D000094B0E461A60036F83F30B882C4686F374
:1024E00009880020054B9847204600210022002340
:1024F000034C2047F80A0020400900205F780000C4
:102500008D0F00001022014B1A61704700ED00E0B2
:102510000023202040F20F1210B5044CE1180133C3
:10252000934281F80003F9D110BD00BF00E100E043
:1025300008B5EFF30583064A103B02EBC30152F8DE
:10254000330049688847BDE80840FFF733BC00BF47
:10255000C88600001FB5094C094A234601210948D5
:1025600000F012F900230393074B0121E41A01A89C
:102570000193029400F012F904B010BD00F00220A3
:1025800000000020B89000001002002010B50C7A66
:102590000B6804F01F0223F01F031A43CB68640981
:1025A00023F01F03054943EA440343F00103C1F844
:1025B0009800C1F89C20C1F8A03010BD00ED00E0EB
:1025C00010B50A4BD3F89030C3F30723013B984270
:1025D00008D901210346064A064805F071F86FF054
:1025E000150010BDFFF7D2FFFBE700BF00ED00E0D4
:1025F00023AC0000CC8F00002DE9F04F8946144633
:1026000006464FF00008514D85B0C84527DAD6F888
:1026100004A0BAF1000F44D0BAF11F0F17D91AF075
:102620001F0F14D1D6F800B01BF01F0F0FD1584662
:1026300005F038F907460AEB0B00013805F032F9CE
:10264000874210D06FF01507414A3B4601E04346F0
:10265000404A0121404805F033F86FF01504204648
:1026600005B0BDE8F08F17F1160FEDD0BC42EBDDE1
:10267000C5F89870D5F89C10C5F89870D5F8A030BA
:1026800021F01F0143F01F0BD6E900321A44994292
:1026900002F1FF3A1DD1D34507D13146F8B205F01A
:1026A0000AF908F101080C36AFE73146C5F8987011
:1026B000D5F89C3022F01F0203F01F031343C5F826
:1026C0009C30E0B205F0F7F810F1160FC5D0441CAD
:1026D000E7E7C5F89870D5F8A020013B23F01F0369
:1026E00002F01F021343D3453146E0B2C5F8A030D3
:1026F000E8D005F0E0F810F1160FAED0C5F89870EC
:10270000D5F89C209DF808300BF1FF3B62F30403E1
:102710008DF80830D5F8A0309DF808205B0863F3E9
:1027200047128DF80820D6E900321344009323F0B5
:102730001F035B44A3EB0A03013023F01F03694628
:10274000C0B20393FFF73CFFBEE700BF00ED00E01F
:102750006CAC000049AC0000CC8F00000522044B9B
:10276000C3F89420BFF34F8FBFF36F8F704700BF44
:1027700000ED00E0BFF35F8F0022024BC3F894200E
:10278000704700BF00ED00E010B5034C2278FFF762
:1027900033FF207010BD00BF271100202DE9F74F37
:1027A000294D8A4606464FF00008AB46274FD045D4
:1027B0001BDAD6F80490B9F1000F3FD03168084613
:1027C000019105F06FF80199044609EB0100013809
:1027D00005F068F884424FF014021D4B08D002FB4C
:1027E00008F36FF015024BF8032003B0BDE8F08F3B
:1027F00014F1160F2C60F8D01978A142F5DD02FB18
:1028000008B0C7F89840C7F89840D7F89C4000F146
:102810000801007B64F304000871D7F8A0000C796C
:10282000400860F347140C71D7F89C1021F01F0189
:102830006960D7F8A01021F01F01296108F1010893
:1028400014350C36B3E700BF4409002000ED00E06A
:1028500027110020F0B54149414CD1F8903025684E
:10286000C3F307239D4287B075D80020FFF782FF8E
:102870003C4BC1F8C030854216D13B4C01A82570B5
:10288000FFF704FA00250646384FAE4213D1002068
:1028900023783249D1F89020C2F30722934254DBC7
:1028A000FFF75CFF00202FE0616801EB0011FFF7EC
:1028B0006DFE0130DFE70199280101EB0513DA68AD
:1028C0003A40B2F5001F21D0B2F5800F2BD0B2F5FF
:1028D000801F38D15A689B680958013B22F01F00BD
:1028E00003440120844623F01F0340EA4C10CDE945
:1028F00002218DF8100002A920780593FFF760FEF1
:1029000000281DDA6FF0150007B0F0BD5A689B680B
:102910000958013B22F01F0003444FF0020C012034
:1029200023F01F03E1E75A689B680958013B22F036
:102930001F0003444FF0000C062023F01F03D4E7D0
:1029400023780133237001359FE7C1F89830C1F82F
:10295000A00001339EE74FF0FF30D5E700ED00E027
:10296000C4900000AAFF4400271100200000F0FFDF
:10297000F0B587B007460E4614460021102268467F
:102980001D4605F0A9FD02238DF80230054B2A46AD
:1029900021466846CDE90476019303F005FF07B0B0
:1029A000F0BD00BFE978000008B5024B1B689847EE
:1029B000002008BD58090020034B044A1860937892
:1029C00043F002039370704758090020E000002094
:1029D00008B50649064821F00701C1F1005202F589
:1029E0003C3204F0C4F9002008BD00BF7725002068
:1029F0005C09002008B5234A234B1A6000F05EF8FA
:102A00004FF47A612148D0F82436C3F30802C3F3A7
:102A100009434B4382F480721D49883201FB023323
:102A20004FF4FA215B00B3FBF1F201FB12331949B9
:102A3000B3F57A3F28BF0132C1F80429D0F8203617
:102A40004FF47A60C3F30802C3F30943434342F2ED
:102A50001C5082F4807202F2172200FB02334FF402
:102A60007A701B0AB3FBF0F200FB1233B3F5FA7F66
:102A70004FF0010328BF0132C1F81C27C1F800360E
:102A8000002008BD0020A107FC00002000C0FF00BE
:102A90001C2500800000125048B1054B054A1B68F8
:102AA000B3FBF2F35843044B43F00103184770475C
:102AB000FC00002040420F00209000000122024B49
:102AC000C3F80424704700BF002008E0084B70B52D
:102AD000C31A0D4607499B10044659434022064835
:102AE00004F016FF2B4601462046BDE8704018470B
:102AF0007C090020B76DDBB628860000402373B543
:102B00000B4C0093041B0B460D460A49A41061436D
:102B10000646094A094804F026FF011E05DA304638
:102B20002B4602B0BDE87040184702B070BD00BF30
:102B30007C090020B76DDBB6CF7900002886000045
:102B400010B5EFF31184202383F31288BFF36F8F46
:102B5000074A136823F00201DB07116002D4012049
:102B600005F009F884F31188BFF36F8F10BD00BF23
:102B7000CC09002070B500220121044640F2051066
:102B8000FFF74CFC0F4800F08BFE0F4B984215D11D
:102B900000F096FE26690D49304604F060FC0028DE
:102BA0000BDB012535642469084904F11C0004F09D
:102BB00056FC002801DB0020E56470BD6FF00400C6
:102BC000FBE700BFF37900000000AD0BEC900000C4
:102BD0001FB500220123CDE902236B46084ACDF838
:102BE00000D0CDF804D004F0EBFE002805DB43F65E
:102BF00009520023684602F04BF805B05DF804FB6B
:102C0000ED7900000C22104B014602FB003300203E
:102C100030B4D3E90E529863EFF31180202484F38B
:102C20001288BFF36F8F1C6C04F0C00444F00204E0
:102C30001C6480F31188BFF36F8F1DB12B4630BC2D
:102C40000248184730BC70477C09002028860000E5
:102C500010B4EFF31182202383F31288BFF36F8F38
:102C60001648016841F002040460C80707D482F3E3
:102C70001188BFF36F8F012010BC00F037BE1049E0
:102C8000D1F80C14C903F2D5EFF3118083F3128845
:102C9000BFF36F8F0B490B6C03F0C00343F00203CB
:102CA0000B6480F31188BFF36F8F82F31188BFF339
:102CB0006F8F002010BCFFF7A5BF00BFCC0900201C
:102CC00000E010507C0900202DE9F0410122074668
:102CD0003449D1E8EF3FC1E8E02F0028F9D133B9FA
:102CE000314932484B60CB608A6004F0CBFB7B1EDD
:102CF000012B28D8012F06D12D4BD3F8503403F0E7
:102D00000303012B1FD005F054F80546E8B9294B01
:102D10001B78D3B104220646254BC3F80823244C64
:102D2000DFF89480D4F84C24D4F84C34D20315D571
:102D300003F00303012B01D0012F0FD165B386F3FC
:102D40001188BFF36F8FBDE8F081EFF31186202368
:102D500083F31288BFF36F8F0125E0E7BDB13046E2
:102D600004F091FDD4F8403413F0FF03DAD1D4F825
:102D70000821002AD6D0C4F80831D4F8083120221E
:102D80000123C4F84034C8F8A0212361CAE7002118
:102D9000202002F081FAE5E70422054BC3F8042362
:102DA000D1E700BF780900206809002098090020B9
:102DB00000E010502A11002000E100E008B50748AB
:102DC00004F0AAFF38B10648FFF7F6FD0448FEF705
:102DD000D7F8002008BD6FF01200FBE7A8860000BE
:102DE000E52D00000A2838B50446074D04D1AB682C
:102DF0000D2128465B689847AB6803485B68E1B2E1
:102E00009847204638BD00BFA88600002DE9F04352
:102E100040F206354668D00648BF0320337B02EAFD
:102E2000050558BFC2F3401087B001F01F07B5F584
:102E3000837F144647EA43178DF8030045D00FD827
:102E4000062D44D007D8B5B1022D14D06FF015006F
:102E500007B0BDE8F083B5F5807FF7D101250AE022
:102E600040F20222954234D0B5F5407F33D0B5F51B
:102E7000007FEBD1042522032FD5012372688B40FC
:102E80005360326982BB5F2F07F01F034FEA57116F
:102E900077D83E4A52F8212084F4803102EB830235
:102EA000D2F88030C1F30041C4F3404423F470638E
:102EB00044EA410423F00F031C4344EA800444EA3B
:102EC0000524C2F880400020C2E70925D3E7082581
:102ED000D1E70625CFE70525CDE7630341BF0123F1
:102EE00072688B409360CCE71036394630460DF15E
:102EF000020201F02DF914F4403F80460CD139460E
:102F0000304604F0FDFE224B9845DCD130469DF85A
:102F1000021001F089F9D6E74FF0000901AB3946FC
:102F2000304603AACDE90439CDE90199CDF80C90DA
:102F300000F080FF164B984288D114F4003315D06E
:102F40009DF8033084F48034C4F300448DF80E30CF
:102F500039464B46304603AA8DF80C508DF80D408B
:102F600001F054F80A4B9842CDD06FE7CDE9043315
:102F700039460DF10303304603AA039300F05AFFCC
:102F8000F0E7203352F82330FFDE00BF109100003D
:102F90000000AD0B4209022A034670B503D0012A96
:102FA00018D0CAB170BD0E4E326951680029F9D0EF
:102FB000012503F01F030C689D400029F2D08A68A8
:102FC0002A4002D030464B6898473CB123682146DE
:102FD0001C46F2E7034EE7E7034EE5E72346F6E734
:102FE00088860000688600004886000038B545687D
:102FF0002B69E3B11035284601F008F90446B0B951
:103000000146284601F0C2F80B4B984211D12246E6
:1030100028460A4901F08EF822460121DB20FFF7FD
:10302000FDF92246012140F20D10FFF7F7F90020CB
:1030300038BD6FF00400FBE70000AD0B952F0000DA
:10304000F0B51646426801F01F04107B87B044EAD1
:1030500040141069002871D0B6F5001F02F1100568
:1030600006D12146284604F04DFE002007B0F0BDF1
:103070000027B6F5800F01A8019747603BD1B3F157
:10308000007F14BF052304238DF804300023CDE90D
:103090000403039393680DF1030723FA01F111F080
:1030A00001013DD1B6F1A07F3AD104F01F035F2C9E
:1030B0004FEA541003F1200346D8254A52F8202045
:1030C00052F82330DB072BD43A462146284601F03C
:1030D0003FF8204B984219D002972146284603AA70
:1030E00000F0A8FE1C4B98422BD101222146284615
:1030F00001F0AAF8B9E7B3F1C06F05D0B3F1007FD2
:1031000014BF01230223BFE70323BDE73946284646
:1031100001F092F8104B9842DED06FF00B00A5E75B
:103120003A462146284601F013F80B4B9842D4D179
:1031300028469DF8031001F077F8CEE76FF0850080
:1031400094E76FF0150091E751F82330FFDE00BFE0
:10315000109100000400AD0B0000AD0B036803F0FC
:103160001F025F2B02604FEA53129ABF024B53F8C3
:1031700022000020704700BF649100002DE9F04F4D
:103180001546074640F2FF19DFF864A1DFF864B185
:1031900085B000EB8101B94203D1002005B0BDE844
:1031A000F08F3B68C3F3C322082AC3F3080400F27C
:1031B0009B804C4508BF4FF0FF34B3F1D05F1AF845
:1031C00002804FEA136210D2192A10D8DFE802F009
:1031D00012181F5A22285A0F0F0F0F0F0F0F0F0F21
:1031E0000F0F0F0F0F0F5D707376382A69D06FF0D5
:1031F0008500D3E7C5F80446631C4FD10437CAE7FE
:10320000C5F80C46621CF9D00026324616E0C5F817
:103210001046F1E7661CC5F80046EFD0002604E032
:10322000601CC5F80446E9D0012603A80394FFF703
:1032300095FF0122039B02FA03F383603B6803942A
:1032400003F40040002818BF002203A818BF01267D
:1032500001930092FFF782FF039C019B00EB840027
:10326000D0F88040C3F3412C009A4FEA082343EA88
:103270008C03134304EA0B04234343EA4603C0F8D8
:103280008030BBE7C5F80846BCE7C5F86045621C5E
:103290003B68B3D0C3F30043002BC5D0012603A87D
:1032A0000394FFF75BFF039B06FA03F34360ACE76D
:1032B000C5F86445EBE7C5F86845E8E7C5F86C452F
:1032C000E5E703A80394FFF749FF039B00EB8300A6
:1032D000D0F8803023F0E04343F08043C0F88030E2
:1032E000631C8BD0012690E76FF0150056E700BFF6
:1032F000F6AC0000F0F0FCFF37B5054600220121D6
:10330000C620FFF78BF8C620FFF758F86C6801213C
:10331000E06804F0F7FB6B6819686369C1F824354D
:10332000E28BA38BA07E1343228C1343628C134346
:10333000627E9BB20243207E02431343C1F86C3588
:1033400069680B68D3F8002242F48022C3F8002297
:103350000822C3F800254A6A0121C3F83C2700224D
:10336000C3F840271965D3F830110029FBD0C3F802
:1033700000256B680021D86804F0C4FB6D6800214B
:10338000E8682C6804F0BEFB0823C4F8003595F803
:103390002C305BB10021E86801AA04F081FB002811
:1033A00004DA0121094A0A4804F081F92A7A52B95B
:1033B000AB6AC4F804370123C4F80837C4F84C21B9
:1033C000D4F84C21A362002003B030BDFFAC000054
:1033D000E48F00002DE9F04104460D46476804F0F3
:1033E000E8FCA0B9274B1B788BB14FF0200864266E
:1033F00063681B68D3F830318BBB012004F0B9FB44
:10340000013EF5D10021202001F046FFEFE7202109
:10341000EFF311831A4681F31288BFF36F8F606850
:103420000068D0F8300120B983F31188BFF36F8FA3
:10343000EEE77B6A00201D706368796A1B68C3F839
:103440003C170121C3F84017C3F83001D3F830010D
:10345000196582F31188BFF36F8FBDE8F081EFF338
:1034600011831A4688F31288BFF36F8F6168096869
:10347000D1F830110029DCD183F31188BFF36F8FAD
:10348000C0E700BF2A11002070B514461D4604F0A5
:1034900048FBA042A94113D30A4AD2E90061A41B08
:1034A00024F01F0365EB01009B1941EB0001C2E909
:1034B0000031640944EAC060BDE8704002F042B9DE
:1034C00070BD00BFE806002010B500220121E420F5
:1034D000FEF7A4FF174A0020D2F8183723F4403330
:1034E000C2F8183700F08EFF134B0446984208D1FB
:1034F0000120124901F016F8A04205D0104B984265
:1035000014D04FF0FF3010BD04F00BFB67220D4BC1
:1035100020F01F00C3E900010B4BC3E900010B4B76
:1035200002201A60FFF7D0FB0020ECE76FF00B00E1
:10353000E9E700BF00200E500000AD0BF8000020AE
:103540000200AD0BE8060020E0060020FC09002088
:1035500008B504F0E6FA054AD2E90032C01A61EB78
:103560000201400940EAC16008BD00BFE806002032
:1035700037B5431C0CBF6FF0004420EAE07404F040
:10358000D0FA0D4BD3E90025801A61EB0503202109
:10359000C4FB0103402873F100042CBF20F01F017D
:1035A000002352184FF0010145EB0303009103483B
:1035B00001F01CF803B030BDE8060020F000002048
:1035C000064BD3F840231C2A05D1D3F84403431EED
:1035D0005842584170470020704700BF00C0FF00AC
:1035E00003689A070CD50368DB070DD50922074B42
:1035F000C3F80C250F22C3F8042501221A60FEE748
:10360000034B0360EF3B0360704700BF0080105026
:10361000F000FA5008B501233E4A3F48C2F800388E
:103620003E4AD2F840231C2A04BF3D4AC2F80C345B
:10363000FFF7D6FF0830FFF7D3FF0830FFF7D0FFC2
:103640000830FFF7CDFF00F5F470FFF7C9FF354AEA
:10365000D2F88C3043F44063C2F88C300022D3009F
:1036600003F57F0303F54043D3F8001401310AD07A
:10367000D3F8001439B1D3F800140132D3F804346C
:10368000402A0B60EBD1234BD3F84024002A3DD0D5
:10369000FFF796FF48B1214BD3F83423224B9A42CF
:1036A0009EBF1C4B214AC3F84026FFF789FF18B183
:1036B0001F4B204AC3F8AC27FFF782FF48B13422E2
:1036C000144BC3F82426D3F83C2622F40022C3F876
:1036D0003C26124BD3F840331C2B08D1164BD3F8A1
:1036E0000026D20744BF6FF00102C3F8002603236F
:1036F000124A0C49C2F81835D1F88C3043F44063B3
:10370000C1F88C300023C2F8A03508BDC822C3F828
:103710004024BDE70000125000C50D5000C0FF005E
:103720000030055000ED00E0001D0A1840E0A91E21
:1037300000A0085078000A0400E0105000B00450C7
:1037400030B50468ACB1B4FA84F30122C3F11F03AD
:10375000DBB29A4024EA0202D0E8EF5FA54204D12E
:10376000C0E8EC2FBCF1000FF6D1EAD102480B7093
:1037700030BD0248FCE700BF0000AD0B0200AD0BFE
:1037800010B50368CB40DB0710D401238B400268DF
:1037900043EA0201D0E8EF4F944204D1C0E8EC1FA5
:1037A000BCF1000FF6D1F2D1014810BD0148FCE791
:1037B0000000AD0B0400AD0BF7B5054648B301287A
:1037C00025D104224FF48073712032490024C1F8BE
:1037D0000803012002F1A04203F1A04303F587137F
:1037E00002F5871210601C601B682B4BD3F8403326
:1037F0001C2B13D0854201D10DF10704002342F2A6
:103800001076244F8DF8073065B1012D2ED003B00E
:10381000F0BD14224FF484730420D6E7012DEDD1BE
:10382000CD60E9E7D7F84C3403F480336CB9002B52
:10383000EDD0012004F09DF9013EF3D1E7E701202E
:1038400004F097F9013EDFD1E1E7D7F84C2402F00C
:1038500003022270002BDAD09DF80730002BEED047
:10386000012DD4D100220D4B5A71D0E7D7F80C347A
:1038700003F480333CB9002BF4D0012004F079F933
:10388000013EF3D1C3E7002B0CBF012300232370BB
:10389000E2D1E7E700E0105000C0FF00000A00207E
:1038A000044B1A7922B9012218601A710248704734
:1038B00002487047000A00200000AD0B0C00AD0B61
:1038C00008B5084B1B6843B140F20510FEF798FDA0
:1038D00018B940F20510FEF771FD0022024BC3F843
:1038E000402408BD000A002000E0105010B510B1BF
:1038F000012845D010BD324BD3F84C14D3F84C24DA
:10390000C80324D502F00303012B04D013B1002017
:10391000FFF752FF00232A4A0420C2F84034102245
:103920004FF48473002103F1A04303F5871319605A
:103930001C68012402F1A04202F587121460214A9A
:103940001268002A36D01E4BC3F80403D2E7D3F81E
:103950004824D107DED5D3F850249207D7D4194A8A
:1039600012681AB10422C3F80423C3E7D3F808216C
:10397000002AFBD00022C3F80821D3F80831B9E7A8
:1039800000220F4BC3F81021D3F81011C3F81821EF
:10399000D3F81811C3F81421D3F814210A4AD2F825
:1039A00040231C2A04D000224FF480737120B9E711
:1039B0009860F8E71A68002AFCD019601B6899E73C
:1039C00000E01050000A002000C0FF0070B5002584
:1039D0001E4C1F4ED4F80C3303B970BDB3FA83F3F9
:1039E000C3F11F039A0002F5807292B202F1A04265
:1039F00002F58712156012680122D8B202FA03F3A9
:103A0000DBB2102BC4F8083311D0402B1BD0042B91
:103A100016D1D4F84C14D4F84C14890710D1C4F83A
:103A20004024C4F804332261D4F80C33D4E70223D1
:103A30007371C4F81451D4F814312023C4F804333A
:103A400033689847F0E77571FAE700BF00E010505F
:103A5000000A0020036803F01F025F2B02604FEA98
:103A600053129ABF024B53F822000020704700BF48
:103A7000C4910000034A4309D35C00F01F001844BE
:103A8000C0B2704733AD000070B505460846FFF779
:103A9000F1FF3C212A79184B01FB0202083233F86E
:103AA0001200C10526D578240026C0F3432120F456
:103AB000F85023F812002A7904FB02340E3434F84B
:103AC000020F10F4807F03D0C0F34320814211D055
:103AD0000136232EF3D10020C2EB02120A4443F830
:103AE000320078202A79BDE8704000FB0230603057
:103AF000FFF746BE70BD00BF080A0020F0B50646BD
:103B0000002487B0114F019117F8012B06AB03EB8E
:103B1000D20313F8143C02F00702D34013F0010360
:103B200006D10134032CEFD10023184607B0F0BDB5
:103B3000074A03AD07CA85E8070055F824100A6A4A
:103B400046F824200A62002AEBD0EEE743AD0000DD
:103B50000090000010B504460846FFF78BFF3C2399
:103B600003FB0400024B083033F81000400B10BD7B
:103B7000080A002010B504460846FFF77BFF3C23E7
:103B800003FB0400034B083033F81000C0F340007F
:103B900010BD00BF080A002010B504460846FFF714
:103BA00069FF3C2303FB0400034B083033F810008B
:103BB000C0F3401010BD00BF080A002078232DE993
:103BC000F04F6F4C0E460C1BB4FBF3F4D0F81413FB
:103BD000DFF8B0B1C9B28BB041F400315BF83420EA
:103BE000009004F041F88103054638D50023E70032
:103BF0000BEBC404CDE907330993636807A81946A2
:103C00000193FFF77BFF3B1D03934FF0000A5E4BD0
:103C10000DF11C090293029A12F8013B0292039AD9
:103C200002EBD3021BF8022003F0070322FA03F38E
:103C3000DA071AD40AF1010ABAF1030F09F10409EB
:103C4000E9D14FF400310022009804F00DF80199F9
:103C500007A8FFF753FF0028D7D125F4003501242A
:103C6000002D76D10BB0BDE8F08F484B5344049340
:103C7000D9F800100029DDD091FAA1F1B1FA81F153
:103C8000049B1C7841EA44142046FFF7F3FE0830F9
:103C900036F81080C8084FEA98030593012319F8F5
:103CA000002001F0070103FA01F122EA010209F8FC
:103CB000002006A80694FFF7CDFE069A059B203249
:103CC00050F82220C8F382075B07B846C2F30142CE
:103CD00023D53046D7B22146424603F0A6FF06A8B8
:103CE0000694FFF7B7FE069B203350F82330C3F34A
:103CF00001439F4207D10021204603F087FF394648
:103D0000204603F083FF06A80694FFF7A3FE0122D6
:103D1000069B02FA03F30362AAE7022A0DD10321EC
:103D2000204603F073FF07F00503012BEBD1424659
:103D30002146304603F079FFE5E70221204605924F
:103D400003F064FF032FF2D0059A032ADBD1022F80
:103D5000ECE795FAA5F3B3FA83F3009904FA03F2BA
:103D600025EA020503F5A27251F8222006EB43036F
:103D70003046B3F86410C2F3014203F056FF6FE718
:103D8000080A0020D091000043AD000043AD0000C0
:103D90002DE9F74305460846FFF76CFE3C222B79D8
:103DA000204F02FB0303083337F813300E46DB07BE
:103DB000044635D5284603F07EFF95F80490314639
:103DC0004846FFF7E9FE60B14846FFF7C3FE002210
:103DD000D5F8008000B208EB8003C3F81025C3F8C3
:103DE000102528463146FFF74FFE3C222B7901A8CB
:103DF00002FB03440023083427F814300196FFF730
:103E000029FE019B00EB8300D0F88020064B134075
:103E100043F00203C0F88030044803B0BDE8F083EB
:103E20000348FAE7080A0020F0F0FCFF0000AD0BA1
:103E30000400AD0B2DE9F04F9046044685B00846CE
:103E4000FFF718FED8F800900F4606462579B9F11D
:103E5000000F23D02846FFF78DFE18B12846FFF744
:103E60009BFE58BB00230DF10F02CDE900338DF806
:103E70000E308DF80F300DF10E014B46384603F031
:103E80007CFE3C2303FB05635D49083331F81320B6
:103E900022F0020242F0010221F81320D8F8043087
:103EA000002B3FD03946207993F80090D3F804A036
:103EB000FFF760FE20B1BAF1000F26D0514835E07F
:103EC0003C226A43DFF838E102EB060C0CF1080CE7
:103ED0003EF81C3023F02003DB04DB0C2EF81C30F2
:103EE000BAF1000F11D0B9F1030FE7D8D8F80410D8
:103EF0002068496891F800A000EB8A00B9F1000F32
:103F000017D1C0F81095C0F810953C2303FB056548
:103F10003B4A083532F8153023F01C0343EA890385
:103F200022F81530D8F8083063BB374805B0BDE833
:103F3000F08FD0F810B552442BF0030BC0F810B539
:103F4000206843EA4A3300EB8A01D1F810050EEBF2
:103F5000420220F4473020F47C70C1F8100541F68D
:103F6000F070D1F810B500EA071040EA094040EAC5
:103F70000B0043F02003C1F81005A2F864702EF87E
:103F80001C30C2E73946D3E900852046FFF77CFDA7
:103F9000B8F1000FC9D078232079194F4343FA189C
:103FA000FB58984504D153689D4201D100220CE092
:103FB000782303FB00700DF10F016030FFF7C0FBA9
:103FC000114B9842B2D19DF80F203C212379C3EBCD
:103FD0000313134447F833802379C3EB03131344CB
:103FE00007EBC3035D60237901FB0363083337F8F4
:103FF000131041EA422242F4807227F8132094E71A
:10400000080A00200400AD0B0000AD0B2DE9FF47AE
:104010000546084617461E46FFF72CFD894604460E
:1040200087B395F804804046FFF7A4FD18B94046D1
:10403000FFF7B2FD68BB3C2303FB0848DFF8E4A0B0
:1040400008F108083AF8183013F01C0F02D07B78FA
:10405000012B1ED001238DF80F3000237A1CCDE9EF
:1040600000734846BB1C0DF10F0103F086FD3C2296
:104070002B7902FB034308333AF8132042F0030282
:104080002AF81320002E4BD049462879FFF772FDFD
:1040900018B9254804B0BDE8F08700214FF03C0C6A
:1040A00030782B68820003EB8003C3F81015C3F847
:1040B00010152B791B490CFB0343083331F813709F
:1040C00027F4604727F0200721F8137077783FB373
:1040D0002B68B6781A44D2F810E5144B3F040EEA68
:1040E0000303C2F8103541F6F07307F4403703EAD2
:1040F00009133605D2F810E53B4306F48016334326
:1041000043EA0E03C2F810352B790CFB0344083444
:1041100031F8143043EA403343F0200321F81430DF
:104120000348B7E7080A00200400AD0B0FE0ECFFDE
:104130000000AD0B30B578250479044B05FB043441
:10414000A160017905FB0133DA6030BD080A002067
:1041500070B5067914463046FFF71EFD68B1084673
:10416000FFF788FC3C2303FB0600054B083033F8BF
:10417000103004485B0B237070BD0348FCE700BFA0
:10418000080A00200000AD0B0400AD0BF8B5064690
:1041900007797820194D00FB075393F8744054BBFE
:1041A000184646222146103004F096F93179144A17
:1041B000336852F8316021468E4212D10022C3F397
:1041C0000830C3F844210130D3F84421FEF7F6F853
:1041D000782303FB075501230A4885F874302B66C2
:1041E000F8BDCAB2920002F58070442A04BF1C5088
:1041F0001A580131E0E70448F2E700BF080A00203E
:10420000D09100000000AD0B0C00AD0B78210279BD
:10421000044B01FB023393F87400003818BF0120EF
:10422000704700BF080A00200079024B03EB8000B2
:10423000FFF7A6BA000100200079024B03EB8000D3
:10424000FFF77EBA000100202DE9F74390F80490B3
:10425000044648461746FFF79FFC0D46266800B304
:104260004846FFF787FC8046D8B94846FFF772FCFE
:1042700005B2AD0005F5807246F802802168B2589B
:104280002944D1F8102542F00102C1F810252FB1C0
:104290000122216802FA00F3C1F8143303B0BDE82B
:1042A000F083D6F8143328469B035CBF4FF40033E9
:1042B000C6F81433FFF7DEFB3C22237902FB030030
:1042C0000E4B083033F81030C3F38203042B11D0A7
:1042D000052B11D001A80195FFF7BCFB019BC1681C
:1042E000D94001F001010231284603B0BDE8F04396
:1042F00003F08CBC0321F7E70221F5E7080A002050
:1043000001490248FFF75ABC080A002000A00D50DE
:1043100001490248FFF752BC800A002000C010503B
:1043200010B50024037A0D49CA181B0103F1A043FC
:1043300003F5622392F85420C3F82C450C2303FBA9
:1043400002130468DC6042681A610122007A187561
:104350008B68824013438B6010BD00BF400000207B
:10436000074B027AD3F8101521F001010A43C3F874
:1043700010250268C3F8A4264268C3F8AC2670472B
:1043800000200E50012303FA00F010F0670F0AD04E
:10439000064B5B68DB4303F067030342044B0548AD
:1043A00018BF184670470448704700BF40000020FF
:1043B0000000AD0B0400AD0B0800AD0B2DE9F0487B
:1043C000EFF31181202383F31288BFF36F8F4FF037
:1043D000FF356FF04044094ED6E900BC5D4574EBF3
:1043E0000C07F9D3CCF31303C0E900B381F31188B0
:1043F000BFF36F8F0248BDE8F08800BF40270E5022
:104400000000AD0BF0B53C4D85B02C78002C6FD181
:104410003A4A01AB07CA83E8070039491846D1F880
:10442000102522F00202C1F81025FFF799FF07239B
:10443000672202F001012144013BCCB24FEA520253
:10444000F7D1052C56D119464FF0010C2A4E002405
:104450006720CFB204E00CFA02F220EA0200013435
:1044600090FAA0F25FFA84FEBE45B2FA82F2F2D36D
:104470000131327505292A4482F8547006F10C0680
:10448000E5D1012100241F489A0801FA02F212F036
:10449000670F18BF1C500433302BF5D1E420FDF713
:1044A0008DFF174B1849D3F8102503F5C07322F080
:1044B0000202C3F8902340F6FF72C3F8A82100223D
:1044C0001A60A3F5807004338B420260F8D1012496
:1044D0000B4B0E4A1C660E4B5D201B68B3FBF2F3C0
:1044E00058430C4B234398470B482C7005B0F0BD44
:1044F0000A48FBE70A48F9E7400000200C9000005A
:1045000000200E5000210E50B0210E5040420F00EE
:10451000FC000020309000000000AD0B0C00AD0B43
:104520000100AD0B73B52A4C054663680E4603F0D7
:10453000010304F1140101A80193FFF701F9254BD0
:1045400098423DD100233370636823F00103636018
:10455000A36843F00103A3601F4BD3F8102596070F
:1045600032D4D3F8102542F00202C3F81025C5B1A9
:10457000D3F8482712F0010202BFD3F8481741F0E0
:104580000101C3F84817144BD3F84017D3F8441768
:104590004C00F9D42AB9D3F8482722F00102C3F815
:1045A00048270E4B0E4A1B68B3FBF2F30A4A03EB93
:1045B00043135BB1D2F84017D2F84417490001D435
:1045C00002B070BD013BF4E70648F9E70648F7E79B
:1045D000400000200000AD0B00200E50FC00002029
:1045E00040420F000C00AD0B0700AD0B2DE9F04170
:1045F0000446007A1D46FFF7C5FE1E4B90469842C2
:1046000006469DF8187031D12046FFF789FEEFF37A
:104610001180202383F31288BFF36F8F227A164B09
:104620009200134400221A60217AC5F31305090190
:1046300001F1A04101F56221C1F82085C1F824559E
:1046400080F31188BFF36F8F87B10123227A0B4962
:1046500003FA02F2D1E8EF5F1543C1E8E05F0028FA
:10466000F8D1227A9340064AC2F824333046BDE896
:10467000F08100BF0000AD0B00210E50C8000020EB
:1046800000200E50F7B5284B284CD3F82C6304F1CA
:1046900088070EB903B0F0BD96FAA6F00123B0FA70
:1046A00080F08340DA43224926EA0306231893F870
:1046B0005450830019440C2303FB0543DB6873B398
:1046C000D7E8EF3F03EA020CC7E8EECFBEF1000FD8
:1046D000F6D1C340DB0719D5020102F1A04202F571
:1046E0006222D2F82435D2F82025D1F800C0BCF1DE
:1046F000000FCED04FF0000CC1F800C00C2101FB20
:10470000054529690091E9688847C2E705F10C036E
:1047100004EBC30C54F83320DCF80430E5E70A68F6
:10472000002AB6D00B60B4E700200E5040000020F5
:1047300000210E50044B40EA0120C3F80005D3F8D5
:104740000024D207FBD5704700B0045010B50446D2
:10475000FCF70EFF03480121034A02F0A8FF2046A0
:1047600003F0E5FAD48F000046AD00002DE9F843D0
:1047700004460D4600AFEFF31188202383F312881F
:10478000BFF36F8F0428294A98BF294BE9468AB0A6
:104790009668117C98BF53F820306A4688BF254B35
:1047A000C2E9073140F2013323489384234BC2E925
:1047B000050442F8103F00234FF431512048FCF724
:1047C000A7FFCD4645B1EB69C3F3080323B101212F
:1047D0001C4A1B4802F06BFF2EB1304603F0F2FA80
:1047E00008B1037803B91848E9468AB06A46174BFE
:1047F000D061C2E9053640F201331384144B42F80C
:10480000103F00234FF411510D48FCF781FF29465A
:10481000CD462046FFF79AFF88F31188BFF36F8FCC
:104820003046FDF76FFDBD46BDE8F883F80A00206D
:10483000E091000055AD00006BAD000005000001E7
:10484000D48F000093AD000063AD0000B4AD000054
:104850000400000138B50A4B53F82040013053F8EA
:104860002050A54200D838BD606830B1037FDB0717
:1048700001D403F064FA0834F3E723689847FAE7B1
:10488000F4910000012270B5294B032086B01A7004
:10489000FFF7E0FFFDF700FA0420FFF7DBFF254CF0
:1048A000254D2646AE4204F1300410D300F024FC1E
:1048B000204C224EAC4226D300F032FCFBF74EFFD8
:1048C0001F4A137B23F00103137306B070BD54F825
:1048D0000C3C059354F8103C049354F8143C039397
:1048E00054F8183C029354F81C3C019354F8203CB3
:1048F000009354E90A2354E90C0100F0EFF954F84D
:10490000303C5E65CDE7D4E90A23B3F1FF3F08BF31
:10491000B2F1FF3F05D052EA0301206803D100F055
:10492000E9FC3034C6E73146183000F079FEF8E78C
:104930002A110020408F0000408F0000C37E00003D
:104940008007002008B50348034A0021121A03F02B
:104950000DFA08BD100200202C110020902370B524
:10496000134E012203FB0066002386B0CDE9042329
:104970000F220193CDE9023214234FF4A0720D4DA2
:104980000D4903FB0055044602FB00110B4B30465A
:10499000009500F0A3F9737B2C7423F00403737368
:1049A000074B013403EBC423EE606B6006B070BDAF
:1049B000F0060020F80A0020301C0020757D000061
:1049C00030140020BFB50020FFF744FF2A4B03F549
:1049D000006282F3088883F30A880024E023274DCD
:1049E000274F85F82230EC772C766C76AC7685F8FC
:1049F00020406B6A43F4E0236B6285F82340FDF7A7
:104A0000FFFBFDF77FFD4FF0FF33AB62EB62FDF77D
:104A100021FFFDF79FFDFCF709FD1A4800F0CAF9D8
:104A200003F079F90120FFF715FF0220164DFFF77B
:104A300011FF00F0A9FB154B15495D61154B4FF4B3
:104A40000062059301232846CDE90343CDE90144E3
:104A50003B46009400F042F906466A7B284622F065
:104A600004026A7303F0EAF92046FFF777FF3A463B
:104A700031462846FDF726FD3014002000ED00E009
:104A8000854800001008002080070020F80A002058
:104A9000701D002016AE00002DE9F34104461746B4
:104AA0001E46EFF31188202383F31288BFF36F8F24
:104AB000C368334A7BB180689168884219D057EA4D
:104AC000060318D188F31188BFF36F8F6FF00F00C2
:104AD00002B0BDE8F081916891F90E100133E360F6
:104AE00093682161A36088F31188BFF36F8F002062
:104AF000EEE72169F2E791F90E1090F90E306FF0B0
:104B00007E029942A8BF19469142B8BF11468B4216
:104B10002DDD03F03AF9054622464146CDE90076FF
:104B2000184800F02FFA0028E1D0EFF31186202377
:104B300083F31288BFF36F8FA068D0B12368216917
:104B40009C420AD04BB193F90E309942A8BF194646
:104B50006FF07E039942B8BF194603F016F940B1D1
:104B60003146084800F0A2FA6FF00A00B0E70025CD
:104B7000D2E7002DF4D186F31188BFF36F8FF3E7EE
:104B8000F80A00202B110020F8B583680546002B99
:104B900040D0234A926893423FD1C368012B03D986
:104BA000013BC3600020F8BDEFF31187202383F39E
:104BB0001288BFF36F8F0169806803F0E6F82C68F4
:104BC000AC4207D10023C5E9023387F31188BFF354
:104BD0006F8FE7E7002CF5D0D4E900320026136090
:104BE0005A60637BC4E9006623F002036373A66026
:104BF00004F1180003F0B8F9AC6094F90E302046C7
:104C00002B61C4F8886003F019F93946054800F0B3
:104C10004DFAC7E76FF01500C5E74FF0FF30C2E768
:104C2000F80A00202B11002070B5EFF31186202325
:104C300083F31288BFF36F8F0468A0421BD0D4B1F6
:104C4000D4E90032002513605A60637BC4E9005543
:104C500023F002036373A56004F1180003F084F9E4
:104C60002046C4F8885003F0E9F83146BDE87040AA
:104C7000064800F01BBAD0E902329A4218BF01334D
:104C8000836086F31188BFF36F8F70BD2B110020F6
:104C900013B5EFF31181202484F31288BFF36F8FD3
:104CA000846844B1013C846081F31188BFF36F8F45
:104CB000002002B010BD52EA030406D181F311882E
:104CC000BFF36F8F6FF00F00F3E7CDE900230246CB
:104CD000014800F057F9ECE72B1100202DE9F043D3
:104CE000984685B000F15803C0E91633109B0025A3
:104CF00003730423073222F0070643730F9B01EB73
:104D000006090F4683734946C0E906558560C57399
:104D10000446FDF72FF80E9B073020F00700A06730
:104D2000C4E91C7602930D9BA9EB000901930C9B2F
:104D30004A460093394643462046FDF7A7FB064BFB
:104D400065659B6884F86C5003B1DB6F4846E36788
:104D500005B0BDE8F08300BFF80A0020F0B50025DB
:104D600087B00595109DDDE9127604950F9D0446E8
:104D700003950E9D02950D9D01950C9D0095FFF7E5
:104D8000ADFFB6F1FF3F08BFB7F1FF3F05D056EAD0
:104D9000070305D1204600F0ADFA204607B0F0BD6C
:104DA0003A46334604F11800014900F039FCF4E7B3
:104DB000C37E000040F2011383810023C0E91C334D
:104DC000C367014B98607047F80A00206FF00A0132
:104DD000094A9368C3F888100849C3F884004B68EF
:104DE00043F080534B60002383F31188BFF36F8F30
:104DF0009368D3F888007047F80A002000ED00E0BF
:104E000070B590F90D20437B002A36DBD90634D1EA
:104E10001B4C63F07F032246437352F8183FE1694D
:104E2000934207D1C0E900210860E06111E0994296
:104E3000F8D01B68002BF5D090F90E5093F90E6056
:104E4000B542F4D0AE42F2DD5968C0E900310860E5
:104E50005860A569954200D005B9E568A3685A7BFA
:104E6000D20604D1DA897F2A01D9AA6932B1AB42CC
:104E700002D0284600F032FB656170BD6361FCE73B
:104E8000F80A002038B590F90D200146002A437B2E
:104E900004DA03F07F03437302F096FF0D4D2A46B8
:104EA00052F8184FAB68944200D004B9EC688B42BA
:104EB00007D05A7BD20604D1DA897F2A01D9A269A8
:104EC0002AB1A34202D0204600F008FB23466B61C2
:104ED00038BD00BFF80A0020B3F1FF3F08BFB2F1B0
:104EE000FF3F03D00249183000F09ABB704700BF63
:104EF000C37E000070B590F90D200146002A437B67
:104F000004DA03F07F03437302F05EFF1C4C4B7B1B
:104F1000224663F07F034B7352F8183FE0699342D7
:104F200007D1C1E900200160E16111E09842F8D0A9
:104F30001B68002BF5D091F90E5093F90E60B54225
:104F4000F4D0AE42F2DD5868C1E90030016059602A
:104F5000A569A368954200D005B9E5688B4207D0E2
:104F60005A7BD20604D1DA897F2A01D9AA692AB1EB
:104F7000AB4202D0284600F0B1FA2B46636170BD07
:104F8000F80A0020F8B5DDE906670D4B0C46986875
:104F900011460C4A1060EFF31182202282F312882E
:104FA000BFF36F8F9D68284602F020FF28463246E7
:104FB0003B46FFF791FF2046BDE8F840FFF706BFEC
:104FC000F80A0020180B0020F8B50446EFF311870B
:104FD000202383F31288BFF36F8F437B49B203F022
:104FE0001F02002A0CBF0126002639D103F07F03DF
:104FF0002D4D437302F0E8FE2A46437B817363F034
:105000007F03437352F8183F934227D1E869C4E9FC
:1050100000200460EC610FE09842F8D01B68002B80
:10502000F5D093F90EC06145F6D08C45F4DD596892
:10503000C4E900310C605C60AC69944200D004B9F2
:10504000EC68AB689C4202D0204600F047FA6C61E5
:1050500087F31188BFF36F8F3046F8BDE869DEE74C
:105060009B071ED5856802F0AFFE81732B689D42B9
:1050700009D16B68C4E900531C606C60E8E76A689A
:105080009342F6D01B68002BF3D093F90E20914287
:10509000F5D08A42F3DD5A68C4E9003214605C60DE
:1050A000D6E78173D4E700BFF80A002049B9EFF3CF
:1050B000058030B9054B5A699B689A4201D0FFF7C9
:1050C00085BE81F31188BFF36F8F7047F80A002007
:1050D000034648B9EFF3058232B9064A516992682E
:1050E000914201D0FFF772BE83F31188BFF36F8F37
:1050F000704700BFF80A0020EFF31181202383F3EB
:105100001288BFF36F8F054B9A68D37B013BD37333
:1051100081F31188BFF36F8F704700BFF80A00203A
:1051200070B5EFF31186202383F31288BFF36F8FDE
:10513000144DAB68DA7B0132DA732A4652F8184F05
:10514000944200D004B9EC685A7BD20604D1DA89C3
:105150007F2A01D9A2692AB1A34202D0204600F0D9
:10516000BDF923466B6186F31188BFF36F8FEFF3B0
:105170001180202383F31288BFF36F8FBDE8704046
:10518000FFF7A6BFF80A0020024B03F11802C3E99B
:1051900006227047F80A002070B5EFF3118620232D
:1051A00083F31288BFF36F8F1B4CA168E0690B6813
:1051B000814214BF1A46002249680B605960A368F7
:1051C000E1692AB9154AC3E900210B60E3610CE0EB
:1051D00093F90E0092F90E50A84218D0854216DDC0
:1051E0005168C3E900210B605360A5690B4B9D42D8
:1051F00000D005B9E568A3689D4202D0284600F0BA
:105200006DF965613046BDE87040FFF7DFBD8A4249
:10521000D8D01268D5E700BFF80A0020100B002094
:10522000F8B550EA010306460C4603D1FFF7B4FF78
:105230000020F8BDEFF31187202383F31288BFF31A
:105240006F8F124D124BA8681860FFF71BFEA868FD
:10525000234632460F49183000F0E2F9AA680446A6
:10526000537B384643F004035373FFF7AFFDAB683D
:10527000D3E90A23B3F1004F08BF002AD8D102F0C6
:105280009BFE201A20EAE070D3E700BFF80A002056
:10529000180B0020C37E000038B504460D46FFF70A
:1052A000BFFFB5F1FF3F08BFB4F1FF3F0246204604
:1052B00018D000234FF47A7447F611201946C2FB28
:1052C000040147F61222904271F100020BD3084B01
:1052D000834243F608538B4107D347F6122200233B
:1052E000FBF7CCF838BD1846FCE76FF00040F9E753
:1052F000ED85FFFF38B50446EFF31185202383F3D6
:105300001288BFF36F8F437B5B070FD5183002F015
:105310002BFE637B204623F004036373FFF770FDCD
:105320002946BDE838400448FFF7C0BE85F3118820
:10533000BFF36F8F38BD00BF2B110020014B986861
:10534000704700BFF80A00202DE9F8430446077BA8
:10535000EFF31185202383F31288BFF36F8F437B14
:10536000190705D585F31188BFF36F8FBDE8F88362
:10537000D90943F008025AD14273A36813B12046F9
:1053800002F02AFD04F1180002F0EEFDA66D04F112
:105390005808B04511D04FF0000976B1304602F000
:1053A0001BFD06F1180002F0DFFD3046C6F88890BC
:1053B000FFF726FDA66DB045EFD1DFF8B880D8F82D
:1053C00008309C423BD1EFF30589B9F1000918BFC1
:1053D0004FF00109D8F81860274A964200D00EB95C
:1053E000D8F80C60B34202D0304600F077F8C8F825
:1053F0001460B9F1000F02D02048FFF7DBFCD8F8A9
:1054000008309C4231D1EFF3058373BB227BD20776
:1054100018D42846FFF7DAFCFB07A7D5002383F34F
:105420001188BFF36F8F0423184602DF9EE703F055
:105430007F0343F00803437302F0C6FC9DE74FF07F
:105440000009C7E785F31188BFF36F8F83F31188D5
:10545000BFF36F8F0423184602DFEFF31180202380
:1054600083F31288BFF36F8FD4E785F31188BFF3FE
:105470006F8FD1E7F80A0020100B002010080020E1
:105480000122044BC01A044BC0105843034B1A545A
:10549000704700BFA0080020ABAAAAAA2B110020C9
:1054A000C3897F2B12D80A4B1B6863B1094B90F953
:1054B0000E201B689A4209DB437BDB0606D1064BB4
:1054C000C31A18BF012303F0010070470023FAE755
:1054D000080100201C0B0020F006002070B50E4BC8
:1054E0000E4C1E7C054606EB460304EBC304204627
:1054F00002F03AFD00220A4B28469A55FFF7D0FFEA
:1055000048B1084B2046BDE870401A680649013A88
:10551000D31700F085B870BDF80A0020A00800205D
:105520002B110020080100208154000038B5EFF352
:105530001185202383F31288BFF36F8F104B114A1C
:105540009C681068A04206D1FFF7C8FF85F3118858
:10555000BFF36F8F38BD00211B7C11600A4AD35CFA
:10556000002BF3D02046FFF79BFF0028EED0637B93
:10557000DB0602D12046FFF7BDFC2046E4E700BF72
:10558000F80A0020180B00202B110020074808B54E
:10559000074A0849121A02F0EBFBBDE8084006482A
:1055A000064A0749121A02F0E3BB00BF4000002080
:1055B0001002002034AE0000400000204000002017
:1055C00034AE0000024B1868984208BF00207047B4
:1055D0000C010020034B1B680BB9FDF7B9BF00207D
:1055E000704700BF200B002030B570B10B4B5B68DB
:1055F00098420AD0036843B1D3E90421D0E90445B5
:10560000121941EB0501C3E90421D0E9003213600E
:105610005A600023C0E9003330BD00BF0C010020F8
:10562000B3F1FF3F08BFB2F1FF3F2DE9F84F044649
:10563000994615461F467BD08160EFF311882023E1
:1056400083F31288BFF36F8F013279F1FF33DFF8F4
:10565000E8A020DBFFF7BEFFDAE90027013549F1BA
:1056600000092D1849EBE07306464FF00109C4E923
:105670000453AD1843EB0707FFF7A4FF0346DFF819
:10568000BCE0DEF804A0EBB9C4E900EACAF80040C7
:10569000CEF8044028E06FF00103DAE900125B1A4B
:1056A0004FF0FF3161EB02025B1B62EB0902012B41
:1056B00072F10001BCBF012300224FF00009C0E9D4
:1056C0000432D9E7D3E9041CD4E904208A4270EB00
:1056D0000C0B24DA891A5A686CEB0000C3E9041039
:1056E000C4E9003214605C60FFF76CFF84420ED1A5
:1056F000134B1B685BB9B9F1000F02D1FFF76AFFCA
:105700000646304602F019FC0021FDF731FF88F310
:105710001188BFF36F8F28463946BDE8F88F521ABB
:1057200060EB0C009A45C4E90420ADD01B68AAE7E1
:1057300000252F46EFE700BFB80800200C0100202D
:10574000200B00202DE9F047EFF31185202383F390
:105750001288BFF36F8FDFF8A0900026C9F8000011
:105760000027FFF72FFFDFF89480D9F80030D8E941
:1057700000ECD91750B1D0E90442A34271EB020A00
:105780001BDAE41A62EB0102C0E90442002413EBC5
:105790000E034CEB01012046C8E90031C9F8004076
:1057A00002F0CBFB2146FDF7E3FE85F31188BFF342
:1057B0006F8FBDE8F047FFF7B9BE14EB0E024CEB5C
:1057C000E473C0E90467C8E90023FFF70DFF85F320
:1057D0001188BFF36F8F83689847EFF311852023FB
:1057E00083F31288BFF36F8FD9F800301B1BC9F801
:1057F0000030FFF7E7FEB8E7200B0020B8080020D4
:1058000010B5EFF31184202383F31288BFF36F8F59
:10581000FFF7E0FE0346054AD2E90001181841EB04
:10582000E37184F31188BFF36F8F10BDB8080020B7
:10583000F8B50446EFF31187202383F31288BFF3F2
:105840006F8F026822B187F31188BFF36F8FF8BDA5
:10585000D0E90A36581C46F10001022871F1000116
:1058600027D3012B76F10001BCBF012316465D1E34
:1058700046F1FF3602F0A4FB013041F1000140196E
:1058800046EB0101012871F100013ADB02F098FBBF
:10589000013041F100016FF00102401946EB0103B4
:1058A0004FF0FF31121A61EB030320461749FFF74F
:1058B000B7FE236B01332363236A6BB187F311882F
:1058C000BFF36F8F2046236A9847EFF31187202399
:1058D00083F31288BFF36F8F54F8185FA542B2D0DC
:1058E000002DB0D0284602F0B8FA0023C5F8883061
:1058F00087F31188BFF36F8F2846BDE8F84002F0A8
:105900009DBA6FF001024FF0FF33CEE7315800002F
:105910002DE9F04105461C4690461F46EFF31186DF
:10592000202383F31288BFF36F8FB4F1FF3F08BFCA
:10593000B2F1FF3F05D186F31188BFF36F8FBDE849
:10594000F081531C74F1FF3309DB012A74F1000369
:10595000BCBF0122002412F1FF3844F1FF37284672
:1059600002F002FBDDE906010023C5E90A012B6311
:1059700042463B4628460249FFF752FEDBE700BF9E
:1059800031580000F8B50D4E0D4C0E4D33680E48E1
:10599000984767782B680C48984733680B489847B6
:1059A000022F08D12478E31F5C425C412B68074832
:1059B00098472046F8BD0024F8E700BF38010020D2
:1059C000240B002034010020D4010020C00100205D
:1059D00070B51D4E1D4C33681D48984723785907F4
:1059E00044BF23F00403237023789A0705D500F001
:1059F000C1F8237823F002032370164D14482B6856
:105A00009847336814489847637813B1134802F0F5
:105A10002EFB002304211148637000F0CBF82B68A3
:105A20000D48984733680A4898472378DB0705D51F
:105A300002F01AFB237823F0010323702B6804483B
:105A4000BDE87040184700BF38010020240B00203B
:105A5000C001002034010020D4010020280B0020C8
:105A60002DE9F041FFF78EFF18B100242046BDE874
:105A7000F081364F36483B689847044620B16FF0B6
:105A80008F04FFF7A5FFF1E7324D2B78D80706D436
:105A900002F0E8FA04462B7843F001032B702E4EF7
:105AA0002B483368984710B1002CE8D0E9E7002C68
:105AB000E7D13B682648984704460028DFD12B7879
:105AC000990706D400F04EF804462B7843F0020301
:105AD0002B7033681E4898470028E5D1002CD0D1A0
:105AE0003B681B4898470028C9D13368184895F887
:105AF000008098470028C2D13B6818489847044660
:105B00000028BCD16B7843B918F0010F05D01448B8
:105B100002F0ABFA022304466B7033680F489847D3
:105B20000028C1D1002CACD13B6809489847002817
:105B3000A5D12B7806485A075CBF43F004032B70AD
:105B400033689847002890D099E700BF38010020BB
:105B5000C0010020240B002034010020D4010020CB
:105B6000280B00200122024B002083F8802570477B
:105B70002C0B00202DE9F0410A4C002526464FF061
:105B8000010803272046C4F820802777013502F05A
:105B90004CFA202D04F12C04F4D1002386F8803532
:105BA000BDE8F0812C0B0020014B1B68184700BF9B
:105BB0001401002010B50A46044619B1024B002119
:105BC0001B68984710BD00BF1801002010B50C4C91
:105BD000206802F0F0FB0B4A1368591C11604BB9A6
:105BE000094A4820D2F8003443F00703C2F80034D1
:105BF000FCF7E4FB2068BDE8104002F0E2BB00BF08
:105C000020010020B01000200080045038B5164D4F
:105C1000286802F0D0FB154B1C68013C1C60ECB9F5
:105C20004820FCF7D9FB0722114BC3F80823D3F80F
:105C3000002422F00702C3F80024C3F80041D3F87F
:105C40000021C3F80441D3F804214FF48072C3F853
:105C50000841D3F80831074BC3F888212868BDE80C
:105C6000384002F0AEBB00BF20010020B010002081
:105C70000080045000E100E070B5114D114E2B681A
:105C8000B3421BD0FFF7A2FF00F08CFA0E4A0F4B75
:105C90000F4952F8040B43F8040B8B42F9D100F082
:105CA000BFFA40B102F0F0F90446FFF7AFFF04B9C4
:105CB0002E60204670BD00F0C1F9F5E70024F8E73A
:105CC0001C010020117365000C92000000C080517F
:105CD0001CD380510022074BC3F81021C3F80C21BC
:105CE000C3F80021C3F80421C3F80821C3F8142124
:105CF000704700BF0050045008B5FFF7EBFF0123C9
:105D00000360104B0A6832B9D3F80C211AB9D3F8E2
:105D10000821002AF6D00B687BB90B4B99420ED0B4
:105D2000A3F58473D3F80831002B0CBF4FF0FF307C
:105D30006FF00200FFF7CEFF08BD0020FAE74FF03A
:105D4000FF30F7E7005004500851045038B50546BD
:105D50000C4691B10021012001F0D6FF0848094905
:105D6000C0F80055C0F80445FFF7C6FF00210446FF
:105D7000084601F0C9FF204638BD6FF00104FAE77C
:105D8000005004500051045010B504460021012079
:105D900001F0BAFF064B0749C3F800450648FFF774
:105DA000ABFF00210446084601F0AEFF204610BDBF
:105DB00000500450085104500850045038B50C46A7
:105DC00059B1074D0749C5F800050748FFF794FF8B
:105DD00010B9D5F80835236038BD6FF00100FBE736
:105DE00000500450105104500C5004502DE9F04F55
:105DF00089B006460F4690461D4602F0FDF904465E
:105E000078B973690090C3F3013262F305148DF819
:105E1000004014F0300408D1B168890710D06FF049
:105E20008604204609B0BDE8F08F102C08D1BDF8DB
:105E3000023023F4F87343F4A873ADF802304EE057
:105E4000DBB2F82B02D06FF08504EAE700234FF0B5
:105E5000010B9E4619461846D6F808C0DFF8CC91CB
:105E600059F804AB1CEA0A0F08D00BFA00F343EA16
:105E70000E0303F07F0E012341EA0A0101300728D7
:105E8000EED12BB19DF803306EF347038DF803304C
:105E90003CEA0101D7D17388FF2B35D005D8802B80
:105EA00034D0C02BCFD1022303E0B3F5807FCAD119
:105EB00004239DF8021063F306118DF8021014B943
:105EC0001CF0030FABD13379022B2BD020D8012B40
